:020000040800F2
:10000000084D0020D5030008F1710008A55B000829
:10001000ED7100085D23000859A7000800000000EA
:1000200000000000000000000000000015030008B0
:10003000012E00080000000071030008799E0008EE
:10004000EF030008EF030008EF030008EF030008C8
:10005000EF030008EF030008032E0008EF03000879
:10006000EF0300080D2E0008172E0008EF0300080C
:100070009D230008EF030008EF030008EF030008CA
:10008000EF030008EF030008EF030008EF03000888
:1000900061230008EF030008EF030008212E000889
:1000A000EF030008EF030008EF030008EF03000868
:1000B000759F0008EF030008EF030008EF03000836
:1000C000EF030008EF030008EF030008EF03000848
:1000D000EF03000829A70008EF03000839A700086C
:1000E000EF030008EF030008EF030008EF03000828
:1000F000EF030008EF030008EF030008EF03000818
:10010000EF030008EF030008EF030008EF03000807
:10011000EF030008EF030008EF030008EF030008F7
:10012000EF030008AD230008BD230008EF0300081B
:10013000EF030008EF030008EF030008EF030008D7
:1001400071230008EF030008EF030008EF03000825
:10015000EF030008552C0008652C000849A700088B
:10016000EF030008EF030008EF030008EF030008A7
:10017000EF030008EF030008EF0300080000000091
:10018000EF030008EF03000800F002F800F0B2F8F7
:100190000AA090E8000C82448344AAF10107DA45E2
:1001A00001D100F0A7F8AFF2090EBAE80F0013F082
:1001B000010F18BFFB1A43F0010318473CD00000A1
:1001C0005CD000000A444FF0000C10F8013B13F023
:1001D000070408BF10F8014B1D1108BF10F8015BA0
:1001E000641E05D010F8016B641E01F8016BF9D193
:1001F00013F0080F1EBF10F8014BAD1C0C1B09D1EA
:100200006D1E58BF01F801CBFAD505E014F8016B5B
:1002100001F8016B6D1EF9D59142D6D370470000ED
:100220000023002400250026103A28BF78C1FBD8FF
:10023000520728BF30C148BF0B6070476E2900F0DD
:10024000C982702900F0138466290CF0AE866529F6
:100250000CF0AB8667290CF0A88661290CF0A78604
:1002600003681B0A28BF41F08001692900F07682EB
:10027000642900F07382752900F070826F2900F004
:10028000A083782900F0DF83E92900F03B83E4298B
:1002900000F03883F52900F03583EF2900F09D83C5
:1002A000F82900F0DE830368DB0928BF41F08001F4
:1002B000632901F0E580732901F0EA80E32901F068
:1002C000F580F32901F0FA80002070471FB50CF08B
:1002D00062FE01F049F90400002000210CF082FCCC
:1002E000401C6060002000210CF066FCE0601FBD37
:1002F00010B510BD01F00AF91146FFF7E7FF0BF04A
:10030000A1FA01F0E7F903B4FFF7F2FF03BC01F033
:100310002BFA00002C4B19680868B0E8F04F80F306
:100320000988BFF36F8F4FF0000080F3118870478A
:100330000000000008480068006880F308884FF05B
:10034000000080F3148862B661B6BFF34F8FBFF32D
:100350006F8F00DF00BF00BF08ED00E0DFF80C008A
:10036000016841F470010160704700BF88ED00E052
:10037000EFF30980BFF36F8F134B1A681EF0100F55
:1003800008BF20ED108A20E9F04F106009B44FF04B
:10039000500080F31188BFF34F8FBFF36F8F0CF0C5
:1003A000F9F84FF0000080F3118809BC196808685B
:1003B000B0E8F04F1EF0100F08BFB0EC108A80F3C9
:1003C0000988BFF36F8F704730000020EFF305807E
:1003D000704700000948804709480047FEE7FEE7EC
:1003E000FEE7FEE7FEE7FEE7FEE7FEE7FEE7FEE7E5
:1003F00004480549054A064B70470000619F000804
:100400008901000808470020084D00200849002005
:100410000849002053EA020C00F069802DE9F04BF6
:100420004FF00006002B1FBFB3FA83F503FA05F463
:1004300024FA05F65E4012BF1643B2FA82F502FABC
:1004400005F4C5F120051EBF22FA05FC44EA0C04A0
:10045000203556EA044C4FEA144418BF641C4FF090
:1004600000084FF00009904271EB030C39D30029CA
:1004700019BFB1FA81F701FA07F6B0FA80F700FA6E
:1004800007F6C7F120071EBF20FA07FC46EA0C0654
:100490002037B6FBF4FCA7EB0507103F07F01F0B56
:1004A000CBF120060CFA0BFB2CFA06F644BFB34640
:1004B0000026202FA4BF5E464FF0000B5BEA060C1F
:1004C00008BF4FF0010B19EB0B09ABFB027C48EBAB
:1004D0000608C01B06FB02CC0BFB03CC71EB0C0126
:1004E000C1E70B46024641464846BDE8F08B13B5CE
:1004F0004FF000004FF00001AFF30080BDE81C405A
:10050000704700007CB51D4616460C00009001D0D7
:100510002044401E074B7B442A46694601903046E2
:1005200000F071F905461CB10020694600F07EF923
:1005300028467CBD1D03000010B5431C02E010F8E6
:10054000011B71B18107FAD14FF0013202C88C1A38
:100550008C4314EAC211F9D0C01A0A0603D0C01E97
:1005600010BDC01A10BD0A0401D0801E10BD0902C2
:10057000FCD0401E10BD10B5203AC0F00B80B1E891
:100580001850203AA0E81850B1E81850A0E81850C8
:10059000BFF4F5AF5FEA027C24BFB1E81850A0E8D1
:1005A000185044BF18C918C0BDE810405FEA827CEB
:1005B00024BF51F8043B40F8043B08BF7047D20702
:1005C00028BF31F8023B48BF11F8012B28BF20F8A3
:1005D000023B48BF00F8012B704702F0FF0343EADB
:1005E000032242EA024200F002B84FF0000204295E
:1005F000C0F0128010F0030C00F01B80CCF1040C52
:10060000BCF1020F18BF00F8012BA8BF20F8022B85
:10061000A1EB0C0100F00DB85FEAC17C24BF00F82B
:10062000012B00F8012B48BF00F8012B70474FF059
:10063000000200B5134694469646203922BFA0E832
:100640000C50A0E80C50B1F12001BFF4F7AF09073E
:1006500028BFA0E80C5048BF0CC05DF804EB89002F
:1006600028BF40F8042B08BF704748BF20F8022B72
:1006700011F0804F18BF00F8012B7047704770478A
:10068000704710B500F0C2FA006810BD10B50446FE
:1006900000F0BCFA046010BD70B5044685690068BE
:1006A000C10601D5302600E02026C00707D070BD66
:1006B000D4E9012130469047206A401C20626D1E1B
:1006C000F6D570BD70B5044685690078C00707D1BE
:1006D00070BDD4E9012120209047206A401C20628F
:1006E0006D1EF6D570BD09684A0501D540B2704748
:1006F000C905FCD500B2704709684A0501D5C0B2EA
:100700007047C905FCD580B2704770B50C460546E8
:10071000012A05D02878800600D5EA69002302E086
:10072000012305E05B1C934202D2E05C0028F9D172
:10073000A869E618C01AA861286A184428622846E1
:10074000FFF7AAFF04E0D5E9012114F8010B904757
:10075000B442F8D32846FFF7B5FF70BD2DE9F0414C
:100760000646002410687529314616A510D0FFF7FB
:10077000BAFF002802DA404213A507E031688A0771
:1007800001D512A502E0490704D511A5012401E015
:10079000FFF7B2FF00210A2206F1240709E0B0FBAF
:1007A000F2FCB0FBF2F302FB1C0030307854184628
:1007B000491C0028F3D123462A463046BDE8F041C3
:1007C00000F06DBA000000002D0000002B000000BA
:1007D0002000000011680268006A530501D5087006
:1007E0000AE0D30501D5088006E0130603D5C21739
:1007F000C1E9000200E008600120704701694A1C5D
:1008000002610878704700B58FB0CDE90131002151
:10081000059105497944CDE903101146684600F079
:1008200031F90FB000BD0000E5FFFFFF0A6802F8D4
:10083000010B0A607047D1E900239A4202D2531C8F
:100840000B601070704700002DE9FF5F15468A4667
:100850000446DFF8AC80F8440027D8E900103E4693
:10086000CDE9001010E03AF816106A4602A800F030
:1008700029FE411C07D02178890603D5E269391881
:1008800091420DD80744761C2078800602D5E06995
:10089000B84205DDAE42E6DB3AF816000028E2D1A8
:1008A000A069C01BA0612046FFF7F6FED8E9001042
:1008B000CDE90010002017E03AF818106A4602A8A7
:1008C00000F000FEB0F1FF3F81460BD000250DF196
:1008D000080B05E0D4E901211BF8050090476D1CC9
:1008E0004D45F7D308F10100B0428046E4DB206AB1
:1008F000384420622046FFF7E5FEBDE8FF9F000078
:100900004EC800002DE9F0418046D21D22F00702BA
:100910000025D2E90002F52915A614D0011E72F1B6
:10092000000106DA0023D0EB030063EB020211A6FC
:1009300008E0D8F800108B0701D50FA602E04907A0
:1009400001D50EA601251146002408F1240704E074
:1009500000F060F930323A55641C50EA0102F7D1D8
:100960002B46324621464046BDE8F04100F097B99B
:10097000000000002D0000002B00000020000000FF
:1009800030B4002100F1240408E002F00705D20889
:10099000303542EA4372DB086554491C52EA0305CC
:1009A000F3D10468002310A2250707D5A40600D4BC
:1009B00021B1C46901230DA2641EC46130BC00F0E2
:1009C0006EB910B5044621461068FFF795FE024641
:1009D0002046BDE810400023D2E7D21D22F00701D7
:1009E000D1E90023CCE70000000000003000000047
:1009F000F0B40D460188090502D5214C7C4402E083
:100A00001F4C7C440E34002100F1240608E002F063
:100A10000F071209E75D42EA03721B097754491C6C
:100A200052EA0307F3D102780023120704D5702D90
:100A300006D009B1022311342246F0BC00F02FB9D0
:100A400001231034F8E770B504460D4621461068BE
:100A5000FFF752FE024629462046BDE870400023BB
:100A6000C6E7D21D22F00703D3E90023C0E70368DD
:100A7000126843F0200303600823C3610023B7E733
:100A8000B0C600002DE9F05F894604464FF0000A29
:100A9000DFF874B1FB44C0F820A02046E168884725
:100AA000002874D0252806D0D4E901219047206A77
:100AB000401C2062F1E700265F462046E168884737
:100AC0002028054607DB312D05D2781910F8200CB7
:100AD00008B10643F1E7B00701D526F00406C4F8D3
:100AE0001CA00027C4F818A02A2D09D028460AF017
:100AF000BDF838B304EB8708303DC8F8185019E04A
:100B000059F8041B204604EB87029161E16888478D
:100B1000012F054618D1E069002820DA26F02006CA
:100B20001DE0D8F8180000EB800005EB40003038DD
:100B3000C8F818002046E168884705460AF096F88C
:100B40000028EED1012F0AD02E2D08D12046E168D1
:100B500088477F1C0546022F46F02006C4DBA069AB
:100B6000002803DA404246F00106A061F00701D0F8
:100B700026F010066C2D0BD0682D09D04C2D39D0E5
:100B80006A2D35D0742D35D07A2D33D016E038E06B
:100B9000E1682F4620468847B842054609D16C2FA8
:100BA00026D04FF48060E16806432046884705461A
:100BB00004E06C2F1AD04FF4807006430DB3A5F1FA
:100BC0004100192802D8203546F400664A462946D5
:100BD000204626604E46FFF731FB80B101280BD03E
:100BE000F61D26F0070000F1080956E74020E4E76B
:100BF0008020D8E70020D6E706F104094DE7284613
:100C000052E7206ABDE8F09F40C6000000487047E8
:100C1000A446002030B5B0F10A024FEA900E71F1FF
:100C200000034EEA817EB0EB0E0061EB91014FEACA
:100C3000101E4EEA017E10EB0E0041EB11114FEA3F
:100C4000102E4EEA016E10EB0E0041EB11214FEA1F
:100C5000104E4EEA014E10EB0E0041EB11414018D0
:100C600041F100014FEAD00040EA41704FEAD10162
:100C700010EB80054FEA810444EA907444EB0104D0
:100C80006D1944EB0404521BA3414FF0000348BF0D
:100C90000A3200D530BD401C41F1000130BD2DE9C4
:100CA000F0470D4699469246044600F12408016833
:100CB000880604D5E06921F01001216000E00120E0
:100CC000A84201DD471B00E00027A1697A1902EB69
:100CD0000900081AA0612078C00602D42046FFF758
:100CE000DBFC002608E0D4E901211AF80600904751
:100CF000206A401C761C20624E45F4DB2078C0063A
:100D00000AD52046FFF7C8FC06E0D4E901213020CF
:100D10009047206A401C2062381EA7F10107F4DCCE
:100D200007E0D4E9012118F805009047206A401C2B
:100D30002062281EA5F10105F3DC2046FFF7C2FC66
:100D40002078000602D50220BDE8F0870120FBE7ED
:100D500070472DE9FF4F0C461E464FF0FF378BB012
:100D6000D2E90001DDF860800A908A46C1F30A5595
:100D700005B93D46002108464FF00000BAF1000FCA
:100D800000F4400005DA00EB80004FF4400101EA76
:100D900050004FEA9059B9F1010F00DDB9460A98A9
:100DA00050EA4A000ED044F61050A5F2FF354543F4
:100DB0002F14B8F1000F1ED07542291E1EDDC9F197
:100DC00000021CE0B8F1010F4FF0000001D030210B
:100DD00003E0F24305E02154401CB042FBDB304607
:100DE0000022002121540B99C1F80880C1E900209C
:100DF0000FB0BDE8F08FBD1B6D1CDEE74A4600DA80
:100E0000694206A800F0F4FB06AB93E8070003ABC9
:100E100083E8070050460A9900F0ADFC8DE8070012
:100E2000A0F500501F3800900398002D0ADD42F213
:100E30001F014A460844002303A90390684600F0B6
:100E400016FF09E0A0F500504A461F38002303A909
:100E50000390684600F020FF8DE807000004000CB6
:100E600003D04FF0FF30410800E01046B8F1000F0A
:100E700003D00022009215461EE0751E05D4FFF730
:100E8000C9FE303262556D1EF9D5B34601220843C2
:100E900002D000227F1C04E02078302801D10022FB
:100EA0007F1E002A099784D01DE0112D07DAFFF775
:100EB000B1FE303262556D1C50EA0102F5D1084393
:100EC00002D00098C8B10EE00021681E05E0235C46
:100ED000625C63542254401E491C8142F7DBAB46DE
:100EE000A81B401E0990002004F80B000B98099ADB
:100EF000C0F80880C0E9002B7AE711264FF00008FF
:100F000057E72DE9F04F88460446D21D22F007012D
:100F100091B0D1E90001CDE90A0109F01FFC0246B8
:100F20000B98C00F01D02D2007E02068810701D564
:100F30002B2002E0202101EAC000032A099001D001
:100F4000072A05DB03464146204600F011FB0BE172
:100F50002078800601D5E06900E00620B8F1650F31
:100F6000814606D0B8F1660F18D0B8F1670F70D17E
:100F700031E00020B9F1110F009001DB112301E0F5
:100F800009F101030AAA01A90CA8FFF7E2FEDDE9B5
:100F90000C70002609F10105834647E001204B460D
:100FA00000904FF000470AAA01A90CA8FFF7D1FE54
:100FB000DDE90DB00C995D46002610B909F101007C
:100FC0000D18B9EB050003D4C0F1FF3609F1010596
:100FD000A5EB09002BE0B9F1010F01DA4FF001098F
:100FE0000020B9F1110F0090484601DD112300E007
:100FF00003460AAA01A90CA8FFF7ABFEDDE90C70B5
:101000004D4600268346207800070AD4AB4500DA17
:101010005D4601A8012D04DD411911F8011C30299C
:1010200007D04F4502DA17F1040F04DA0120824697
:101030000FE06D1EEEE7002F02DCED1B3E4403E0E7
:10104000781CA84200DD7D1CB81B00F1010A4FF09E
:1010500000472078000703D4AA4501DB4FF0FF3A90
:101060000021B7F1004F0DF143088DF8431024D053
:1010700002202B23002F01DA7F422D230A21021E9A
:10108000A0F1010000DC5FB197FBF1FC97FBF1F2EE
:1010900001FB1C7C17460CF1300C08F801CDEEE783
:1010A000A8F1010003702188090501D5452100E060
:1010B0006521A0F1010800F8011C09980FA9A1EB16
:1010C0000807FF1D00B10120411901EBEA70A16979
:1010D0003844081A401EA0612078C00602D4204679
:1010E000FFF7DAFA099828B1D4E901219047206A7C
:1010F000401C20622078C00622D52046FFF7CCFA9B
:101100001EE0002E04DBB34502DD01A8805D00E097
:101110003020D4E901219047206A401C2062761CCF
:10112000AAF101005FEA000A0AD100F01DFAC068C6
:101130000168405CD4E901219047206A401C20628C
:10114000281EA5F10105DCDC07E0D4E9012118F82F
:10115000010B9047206A401C2062381EA7F101074E
:10116000F3DC2046FFF7AEFA032011B041E60000A1
:101170002DE9F04F04460D46D21D22F0070089B03C
:10118000D0E900974846394609F0E8FA0246F80FD8
:1011900001D02D2307E02068810701D52B2302E031
:1011A000202101EAC0038DF820300BB1012000E0BE
:1011B0000020032A824601D0072A04DB2946204664
:1011C00000F0D6F93FE12078800601D40D2500E03B
:1011D000E569C7F30A560D2D49DA00214FEA175B7E
:1011E00008464FF00000002F00F4400007DA00EB43
:1011F00080004FF4400100EBD07001EA60008115DF
:10120000012901DD4FF0FF3100224FEA850CBCF1CE
:10121000180F06D31346ACF118004FF08052C240AD
:1012200003E04FF4801323FA0CF30CF10C0CBCF127
:10123000200F04D3ACF1200C09FA0CF001E007FAFE
:101240000CF000294FF0004801DD18B90FE00ED175
:1012500040450CD319EB02095F4121B9404502D149
:101260009F4329EA0209BBEB175F00D0761C208858
:10127000000502D57B48784402E07A487844193862
:1012800008AA302302F80A30037C0AF10101002E7B
:101290000AF1020A53546A4602DC4FF0300101E0C1
:1012A0004FF031014FF001088DF8001002D0A6F286
:1012B000FF3603E059EA470100D06B4E002D02DCF7
:1012C0002178090704D54FF002082E218DF801106E
:1012D000C44600210BE0C7F303433F01C35C491C34
:1012E0006D1E02F80830052908F1010801DA002D09
:1012F000F1DC00210CE000EB1973491C1B786D1E1A
:10130000082902F808304FEA091908F1010801DA42
:10131000002DF0DC21688B0602D516E0A8F101084B
:10132000E04505DD02EB080313F8013C302BF5D056
:10133000B8F1000F09DD02EB080313F8013C2E2B76
:1013400003D1090701D4A8F10108002D05DD3E21D4
:1013500002F808106D1E08F10108407C002E02F80A
:10136000080008F1010804DA2D20764202F808008E
:1013700002E02B2002F808000A214FF47A7086421E
:1013800008F101080BDB96FBF0F3303302F808306C
:1013900096FBF0F308F1010800FB136601E0642EF0
:1013A0000CDB642096FBF0F3303302F8083096FB38
:1013B000F0F308F1010800FB136601E00A2E06DBDA
:1013C00096FBF1F0303002F8080008F1010896FBB6
:1013D000F1F001FB1060303002F80800A16908F15B
:1013E000010808EB050202EB0A00081AA061207848
:1013F000C00602D42046FFF74FF9216A08AE01EB80
:101400000A00206204E0D4E9012116F8010B90479C
:10141000BAF1010AF7D22078C00602D52046FFF7BC
:101420003BF96E4609E016F8010B3E280FD0D4E9CF
:1014300001219047206A401C2062B8F10108F2D2D5
:101440002046FFF73FF909B00320BDE8F08F206A7E
:101450002844206203E0D4E90121302090476D1E2A
:10146000EBD3F8E782BE000002FCFFFF10B5436932
:1014700013B1AFF3008001E0FFF747F9012010BD81
:10148000127800F124010A7000224A700122EDE76F
:1014900011684FF0FF32E9E710B5436913B1AFF3BC
:1014A000008001E0FFF7D0F9012010BD128800F1A3
:1014B000240182840022C2840122EDE711684FF0EA
:1014C000FF32E9E770B516460C46054600F044F8D1
:1014D000036893F80101012806D0FF2C0FD8185D8E
:1014E00068B101202C7070BDD3F807013246214647
:1014F00003F2071303442846BDE8704018474FF035
:10150000FF3070BD00487047A44600207546FFF7C5
:10151000F9FFAE4605006946534620F007008546B0
:1015200018B020B5FEF764FFBDE820404FF000067C
:101530004FF000074FF000084FF0000B21F00701BB
:10154000AC46ACE8C009ACE8C009ACE8C009ACE8FE
:10155000C0098D467047000010B500F005F8001D69
:1015600010BD00BF81B6000000487047C44600208F
:101570002DE9F0411F46044603260168072A01F4BD
:10158000006004DB08B116A505E016A503E008B16C
:1015900015A500E015A521F010002060A069C01E6F
:1015A000A0610FB1401EA0612046FFF775F84FB152
:1015B000D4E9012138469047206A401C2062C01CB3
:1015C000206206E0206AFAE7D4E9012115F8010B50
:1015D0009047761EF8D22046FFF774F8BDE8F081F8
:1015E0004E414E006E616E00494E4600696E6600C7
:1015F0002DE9F047814616468AB0354878440DC833
:101600008DE80D0032487844801C03AC0DC884E896
:101610000D0041F69B300844372190FBF1F290FB1E
:10162000F1F5A5F1800501FB12041B3C02D56442D3
:10163000012000E00020DFF898A080460027FA444F
:10164000AAF1BE0A0EE0E0070AD03246684607EB70
:10165000470101230AEB810100F01EFB8DE8070022
:1016600064107F1C002CEED1194F7F44AE3F19E06F
:10167000E80715D007EB04100DF1180A90E80E00EA
:101680008AE80E00C068F04201D1981908903246ED
:10169000012306A903A800F0FFFA03AB83E80700C3
:1016A0006D10641C002DE3D14FF0010332466946F2
:1016B000B8F1000F03A802D000F0D9FA01E000F061
:1016C000EBFAC9E90001C9F808200AB0BDE8F087C3
:1016D0008CBB000010B50446AFF300802046BDE887
:1016E0001040FEF710BE00004FF0013C50F8042BF4
:1016F00051F8043B9A4221D1A2EB0C03934313EA25
:10170000CC1317D150F8042B51F8043B9A4215D151
:10171000A2EB0C03934313EACC130BD150F8042B28
:1017200051F8043B9A4209D1A2EB0C03934313EA0C
:10173000CC13DBD04FF00000704700BFD01A01BAC5
:10174000B1FA81F101F0180122FA01F0CB40C1F1A8
:101750002001DBB2C0B2C01A2CFA01F3D11A9143B6
:1017600011EAC311E6D1704701491820ABBEFEE76C
:101770002600020070475FEA400C08BF91F0000F9E
:101780004FEA8C234FEAC12243EA51514FEA1C50E1
:1017900018BF00F5F0404FEA300018BF41F000419B
:1017A0005FEA6C5C00F02980BCF1FF3F08BF40F0AD
:1017B00080407047130C06BF12044FF0100C4FF01E
:1017C000000C130E04BF12020CF1080C130F04BF1F
:1017D00012010CF1040C930F04BF92000CF1020CE7
:1017E000D30F04BF52000CF1010C11464FF0000260
:1017F000A0F11F00A0EB0C00704711F0004F08BFD4
:10180000704731F000413FF4D5AF0B0C06BF09041F
:101810004FF0100C4FF0000C0B0E04BF09020CF13E
:10182000080C0B0F04BF09010CF1040C8B0F04BF53
:1018300089000CF1020CCB0F04BF49000CF1010C24
:10184000CCF12003A0EB0C0022FA03F302FA0CF215
:1018500041EA030100F10100704720F07F4C80EA6B
:10186000030023F07F47ACEB070303F57C5300F044
:10187000004003F1FF032DE980494FEA154B09B4FD
:101880004FEA144325EA0B4E24EA03480FF20426DC
:1018900006EB132749083E785FEA320203FB06672E
:1018A000C7F5000707FB06F64FEA54374FEAD6465E
:1018B00006F1020607FB066CCCF1005C4FEA1C4700
:1018C0002CEA074C07FB06F40CFB06F504EB154667
:1018D0004FEA961634BF00204FF000404FEAD13750
:1018E00006FB07FC4FEA1C4C0CFB0BF7D21B03FB5F
:1018F0000CF761EB07010CFB0EF7B0EB074072EB46
:1019000017420CFB08F734BFA2EB0742B2EB0742C9
:1019100061EB17414FEA0C444FEA910706FB07FCC5
:101920004FEA1C4C0CFB0BF7B0EBC74072EB573285
:1019300003FB0CF734BFA2EBC742B2EBC74261EB2B
:1019400057310CFB0EF7B0EBC70072EB57720CFB74
:1019500008F734BFA2EBC702B2EBC70261EB5771C5
:10196000039F4FEA816141EA921104EBCC044FEAF4
:10197000D1374FEA826206FB07FC42EA90124FEA37
:1019800080604FEA1C4C0CFB0BF7D21B03FB0CF7DF
:1019900061EB07010CFB0EF7B0EB074072EB17424F
:1019A0000CFB08F734BFA2EB0742B2EB074261EB36
:1019B00017414FEA8C554FEA910704EB9C2406FB34
:1019C00007FC4FEA1C4C0CFB0BF7B0EBC74072EB6B
:1019D000573203FB0CF734BFA2EBC742B2EBC7424E
:1019E00061EB57310CFB0EF7B0EBC70072EB57728F
:1019F0000CFB08F734BFA2EBC702B2EBC70261EBE6
:101A0000577115EB4C254FEA816141EA92114FEA7B
:101A100082624FEAD13742EA901206FB07FC44F19A
:101A200000044FEA80604FEA1C4C0CFB0BF7D21B02
:101A300003FB0CF761EB07010CFB0EF7B0EB074063
:101A400072EB17420CFB08F734BFA2EB0742B2EB74
:101A5000074261EB174115EB1C154FEA813141EA52
:101A600092414FEA823242EA90424FEA80304FEA96
:101A70000C7644F1000448EA03434EEA0B484FF069
:101A8000000EB2EB080C71EB030724BF6246394627
:101A90004EEB0E0E4FF0000B0018524149414BEB3C
:101AA0000B0BB2EB080C71EB03077BF1000B24BFAF
:101AB000624639464EEB0E0E4FF0000B00185241B5
:101AC00049414BEB0B0BB2EB080C71EB03077BF1BD
:101AD000000B24BF624639464EEB0E0E51EA020758
:101AE00018BF46F0010616EB0E7655F1000254F1D0
:101AF000000103D5BDE88901BDE80088BDE8890182
:101B0000BDE80048B619524141EB0101A3F10103C0
:101B1000704780807F7E7D7C7B7A7978777676755A
:101B20007473727171706F6E6E6D6C6C6B6A6A69D2
:101B30006868676666656464636362616160605F6C
:101B40005F5E5E5D5D5C5C5B5B5A5A5959585857E5
:101B5000575656555555545453535252525151504D
:101B600050504F4F4F4E4E4D4D4D4C4C4C4B4B4BA0
:101B70004A4A4A49494948484847474747464646E6
:101B80004545454444444443434343424242424121
:101B90004141002B9C4630D477002BD01CB54FEA36
:101BA000370703B44FF010004FF01001BAF1000FE7
:101BB00006D0BCF1000FDCBF40F0080040F0080187
:101BC0004FF000000FBCBDE810400BF1010BBBF162
:101BD000010F08BF5FEA170722BF12F1010211F1DE
:101BE00001014FF0004143F1000300F0004043EADF
:101BF00000007047F9D35708D0E746EA064613F1CC
:101C0000400F4FEA16461FDD13F1200FDFBF1643CA
:101C10000A46002120335B42BED0C3F1200746EACA
:101C2000064602FA07F74FEA164646EA0706C3F1E8
:101C3000200722FA03F201FA07F721FA03F14FF025
:101C4000000342EA0702A7E746EA020646EA06461A
:101C50004FEA164646EA0106BCBF46EA0646360C7F
:101C60004FF000034FF000024FF0000194E72DE920
:101C7000804C9A46934670B491E8380007C831EA20
:101C8000400C48BF34EA430C03D5FFF7E6FDFFF7ED
:101C900080FFF0BCBDE8008C2DE9804C9A4693464D
:101CA00070B491E8380007C810F0804F08BF13F0F7
:101CB000804F03D100F005F8FFF76BFFF0BCBDE8E3
:101CC000008C20F07F4780EA030023F07F4C07EB75
:101CD0000C03A3F57C5300F00040A3F1FE0392F047
:101CE000000F00F0B38095F0000F00F077802DE931
:101CF00001494FEA11404FEA144621EA004800FB2F
:101D000006FC24EA064708FB06F607FB08F800FB7A
:101D100007F718EB06484CEB164C4FEA124B18EB42
:101D200007484FEA15464CEB174022EA0B4E0BFBD7
:101D300006FC25EA06470EFB06F607FB0EFE0BFB2C
:101D400007F71EEB064E4CEB164C4FF000061EEB51
:101D5000074E4CEB174B18EB0B0840F1000018EB4B
:101D60000E0B58EB000840F100008F1A4FF00001F5
:101D70003CBFC943661B14BFB5EB040C00213CBF3C
:101D8000C943F61B4FEA17444EEA8E0E27EA044574
:101D90004FEA1C4704FB07622CEA074C05FB07F7D8
:101DA0000CFB05F604FB0CFC16EB074642EB174256
:101DB00016EB0C4642EB1C421BEB060658EB0202EC
:101DC000414146EA9E0601D5BDE80189B619524156
:101DD00041EB0101A3F10103BDE801894FEA14457C
:101DE0004FEA114724EA054621EA074C05FB07F4B0
:101DF00006FB07F70CFB06F105FB0CFC11EB07419A
:101E000044EB17444FEA124711EB0C4144EB1C44DE
:101E100022EA074C05FB07F206FB07F70CFB06F668
:101E200005FB0CFC16EB074642EB174216EB0C4683
:101E300042EB1C456A1854F1000148BF7047B619BF
:101E4000524141EB0101A3F10103704795F0000FEE
:101E500037D04FEA11424FEA144721EA024624EAFA
:101E6000074C02FB07F106FB07F70CFB06F402FB2D
:101E70000CFC14EB074441EB17414FEA154714EBF8
:101E80000C4441EB1C4125EA074C02FB07F506FB1D
:101E900007F70CFB06F602FB0CFC16EB074645EBBE
:101EA000174516EB0C4645EB1C42121951F1000187
:101EB00048BF7047B619524141EB0101A3F101033C
:101EC00070474FEA14454FEA114724EA054621EAD4
:101ED000074C05FB07F106FB07F70CFB06F24FF07A
:101EE000000605FB0CFC12EB074241EB174112EB1D
:101EF0000C4251EB1C4148BF7047921841EB010165
:101F0000A3F1010370470000B7EE000A80ED000A5C
:101F10009FED060A80ED010A9FED040A80ED020A9A
:101F20009FED020A80ED030A7047000000000000E8
:101F30002DE9F0412DED028B0746B0EE408A0C46AC
:101F400015461E46D6ED024AB0EE644AD6ED014A69
:101F5000F0EE643AD6ED004AB0EE643AD5ED024AAE
:101F6000F0EE642AD5ED014AB0EE642AD5ED004AC0
:101F7000F0EE641AD4ED024AB0EE641AD4ED014AD0
:101F8000F0EE640AD4ED004AB0EE640A384604F07C
:101F9000D9FCBDEC028BBDE8F081000010B5012238
:101FA0001021024801F09EFD10BD0000000002401B
:101FB00010B500221021024801F094FD10BD000070
:101FC000000002407047000010B50122114602488F
:101FD00001F088FD10BD00000004024010B5002291
:101FE0000121024801F07EFD10BD00000004024006
:101FF00010B543781B021BB20478234300EE103A5D
:10200000B8EEC01A1C4BD3ED001A21EE211A81ED57
:10201000001AC3781B021BB28478234300EE103AE7
:10202000B8EEC01A144BD3ED001A21EE211A81ED3F
:10203000011A43791B021BB20479234300EE103AC4
:10204000B8EEC01A0C4BD3ED001A21EE211A81ED27
:10205000021A037A1B04C47943EA042384792343D4
:1020600000EE903AB8EE601ADFED041A21EE211A64
:1020700082ED001A10BD00002401002000401C4227
:10208000704710B50446204609F02AFC10BD10B573
:102090000446204609F00EF910BD000042781202F5
:1020A00012B203781A4300EE102AF8EEC00A144A5E
:1020B00092ED001A60EE810AC1ED000AC2781202A8
:1020C00012B283781A4300EE102AF8EEC00A0C4AC6
:1020D00092ED001A60EE810AC1ED010A4279120206
:1020E00012B203791A4300EE102AF8EEC00A044A2D
:1020F00092ED001A60EE810AC1ED020A70470000FD
:102100002801002010B50024FFF75CFFFFF7B8FF9F
:1021100008F04EFE10B144F0800402E008F0AEFD7D
:10212000044309F03DF810B144F0400402E008F027
:10213000BDFF0443204610BD2DE9FC4105460E4677
:102140001746002000900190FFF732FF922000F028
:10215000D1F806226946122000F0ACF8FFF71EFF06
:102160009DF80100000200B29DF8001040EA010451
:1021700000EE104AB8EEC00A4C48D0ED000A20EE3E
:10218000200A86ED000A9DF80300000200B29DF8C7
:10219000021040EA010400EE104AB8EEC00A4348BB
:1021A000D0ED000A20EE200A86ED010A9DF8050018
:1021B000000200B29DF8041040EA010400EE104A4B
:1021C000B8EEC00A3948D0ED000A20EE200A86EDAC
:1021D000020AFFF703FF08226946002000F06AF8B0
:1021E000FFF7F2FE9DF800000F2838D19DF803009C
:1021F000000200B29DF8021040EA010400EE104A0D
:10220000B8EEC00A2A48D0ED000A20EE200A85ED7B
:10221000000A9DF80500000200B29DF8041040EA93
:10222000010400EE104AB8EEC00A2148D0ED000AC1
:1022300020EE200A85ED010A9DF80700000200B299
:102240009DF8061040EA010400EE104AB8EEC00AFC
:102250001748D0ED000A20EE200A85ED020AFFF7AC
:10226000A7FEA22000F046F802226946222000F0D4
:1022700021F8FFF793FE9DF80000C0009DF80110C3
:1022800040EA6114B4F5806F02DBA4F5006004B28B
:1022900000EE104AF8EEC00AB4EE001AB3EE070AD8
:1022A00000EE810A87ED000ABDE8FC8124010020D0
:1022B0002801002070B506460C46154646F0800001
:1022C00000F018F806E0552000F014F82070641CA7
:1022D000681EC5B2002DF6D170BD70B504460D461E
:1022E00044F0800000F006F8552000F003F8287054
:1022F00070BD000001B582B04FF47A70012301AACD
:1023000002A90090024802F04FFD9DF804000EBDA6
:102310004804002010B502461378DB00547843EAE5
:102320006410B0F5806F02DBA0F5006318B200EE18
:10233000100AF8EEC00AB4EE001AB3EE070A00EE77
:10234000810A81ED000A10BD70B505460C4628468D
:10235000FFF7D0FF2046FFF7CDFF70BD00BFFEE7BF
:1023600010B5024800F065FD10BD0000A403002078
:1023700010B5024800F05DFD10BD0000CC03002048
:1023800000BF08F07AFF012009F0AAFAF9E700BFC0
:1023900008F06EFF012009F0A3FAF9E710B5024832
:1023A00001F04EF810BD0000E006002010B5024814
:1023B00001F046F810BD00004007002010B5FE48AF
:1023C000C06C0068FD49884276D9FC4854380068E2
:1023D000F949C96C0968FA4A914201D1202169E0A2
:1023E000F549C96C0968F54A483A914201D1202162
:1023F00060E0F149C96C0968F14A6032914201D14B
:10240000202157E0EC49C96C0968EC4A1832914226
:1024100001D120214EE0E849C96C0968E84A183228
:10242000914201D1C91445E0E349C96C0968E34A06
:10243000303A914201D1C9143CE0DF49C96C0968C6
:10244000DF4A7832914201D1C91433E0DA49C96CCC
:102450000968DA4A3032914201D1C9142AE0D649DA
:10246000C96C0968D64A3032914202D14FF400114A
:1024700020E0D149C96C0968D04A183A914202D18A
:102480004FF4001116E0CC49C96C0968CC4A90326F
:10249000914202D14FF400110CE0C749C96C0968A0
:1024A000C64A4832914203D14FF4001102E003E0E2
:1024B0004FF00061084070E1BF48C06C0068C0493F
:1024C000A831884276D9BD4858380068BA49C96CE5
:1024D0000968BB4A914201D1202169E0B649C96C23
:1024E0000968B64A483A914201D1202160E0B249D8
:1024F000C96C0968B24A6032914201D1202157E08B
:10250000AD49C96C0968AD4A1832914201D1202108
:102510004EE0A949C96C0968A94A1832914201D113
:10252000C91445E0A449C96C0968A44A303A9142EB
:1025300001D1C9143CE0A049C96C0968A04A7832AD
:10254000914201D1C91433E09B49C96C09689B4A87
:102550003032914201D1C9142AE09749C96C096807
:10256000974A3032914202D14FF4001120E0924953
:10257000C96C0968914A183A914202D14FF400118E
:1025800016E08D49C96C09688D4A9032914202D19A
:102590004FF400110CE08849C96C0968874A483239
:1025A000914203D14FF4001102E003E04FF00061CB
:1025B0000840F2E08048C06C006881494831884298
:1025C00076D97F48103840687B49C96C09687C4AD5
:1025D000914201D1202169E07749C96C0968774AA5
:1025E000483A914201D1202160E07349C96C0968E1
:1025F000734A6032914201D1202157E06E49C96C83
:1026000009686E4A1832914201D120214EE06A4990
:10261000C96C09686A4A1832914201D1C91445E06F
:102620006549C96C0968654A303A914201D1C914BB
:102630003CE06149C96C0968614A7832914201D134
:10264000C91433E05C49C96C09685C4A3032914274
:1026500001D1C9142AE05849C96C0968584A303276
:10266000914202D14FF4001120E05349C96C09682E
:10267000524A183A914202D14FF4001116E04E49E5
:10268000C96C09684E4A9032914202D14FF4001150
:102690000CE04949C96C0968484A4832914203D163
:1026A0004FF4001102E003E04FF00061084074E0D5
:1026B0004348103800684049C96C0968404A914253
:1026C00001D1202168E03C49C96C09683B4A483A7D
:1026D000914201D120215FE03749C96C0968384A2D
:1026E0006032914201D1202156E03349C96C09681A
:1026F000324A1832914201D120214DE02E49C96C55
:1027000009682F4A1832914201D1C91444E02A497C
:10271000C96C0968294A303A914201D1C9143BE099
:102720002549C96C0968264A7832914201D1C914F9
:1027300032E02149C96C0968204A3032914201D106
:10274000C91429E01C49C96C09681D4A30329142FC
:1027500002D14FF400111FE01749C96C0968174AEC
:10276000183A914202D14FF4001115E01249C96C98
:102770000968134A9032914202D14FF400110BE0E4
:102780000D49C96C09680D4A4832914202D14FF493
:10279000001101E04FF00061084000286FD00648AA
:1027A000C06C0068054988427BD90348C06C00684A
:1027B0000349884208D105E04804002058640240DB
:1027C00010600240202068E0FE48C06C0068FE49AE
:1027D000884201D1202060E0FA48C06C0068FB49C3
:1027E000884201D1202058E0F648C06C0068F649C4
:1027F0006031884201D120204FE0F248C06C00686F
:10280000F2494839884201D1C01446E0ED48C06C15
:102810000068ED491831884201D1C0143DE0E94813
:10282000C06C0068E9491831884201D1C01434E015
:10283000E448C06C0068E4497831884201D1C01492
:102840002BE0E048C06C0068E0493039884202D192
:102850004FF4001021E0DB48C06C0068DA493031E9
:10286000884202D14FF4001017E0D648C06C0068CF
:10287000D6493031884204D14FF400100DE0DFE139
:102880000FE0D048C06C0068CF499031884202D137
:102890004FF4001001E04FF00060CB49091F0860C1
:1028A0006AE1C848C06C0068C8494831884274D998
:1028B000C448C06C0068C5496039884201D12020F5
:1028C00066E0C048C06C0068BF49884201D1202042
:1028D0005EE0BC48C06C0068BC49884201D1202041
:1028E00056E0B848C06C0068B7496031884201D1F1
:1028F00020204DE0B348C06C0068B4494839884294
:1029000001D1C01444E0AF48C06C0068AE49183132
:10291000884201D1C0143BE0AA48C06C0068AB49B2
:102920001831884201D1C01432E0A648C06C00685A
:10293000A5497831884201D1C01429E0A148C06C72
:102940000068A2493039884202D14FF400101FE0DC
:102950009C48C06C00689C493031884202D14FF4D9
:10296000001015E09748C06C0068984930318842E3
:1029700002D14FF400100BE09248C06C00689249FD
:102980009031884202D14FF4001001E04FF0006016
:102990008D4908390860EFE0FFE78A48C06C00689D
:1029A0008A491839884274D98648C06C00688749BA
:1029B0006039884201D1202066E08248C06C0068FE
:1029C0008149884201D120205EE07E48C06C0068C9
:1029D0007E49884201D1202056E07A48C06C0068C8
:1029E00079496031884201D120204DE07548C06CA2
:1029F000006876494839884201D1C01444E07148E2
:102A0000C06C006870491831884201D1C0143BE0A5
:102A10006C48C06C00686D491831884201D1C014FF
:102A200032E06848C06C006867497831884201D15B
:102A3000C01429E06348C06C00686449303988429A
:102A400002D14FF400101FE05E48C06C00685E4980
:102A50003031884202D14FF4001015E05948C06C63
:102A600000685A493031884202D14FF400100BE01F
:102A70005448C06C006854499031884202D14FF4E8
:102A8000001001E04FF0006050497039C86073E0F9
:102A9000FFE74C48C06C00684C496039884201D15E
:102AA000202066E04748C06C00684749884201D151
:102AB00020205EE04348C06C00684449884201D150
:102AC000202056E03F48C06C00683F496031884292
:102AD00001D120204DE03B48C06C00683B4948399B
:102AE000884201D1C01444E03648C06C00683649C1
:102AF0001831884201D1C0143BE03248C06C0068F4
:102B000032491831884201D1C01432E02D48C06CDE
:102B100000682D497831884201D1C01429E0294844
:102B2000C06C006829493039884202D14FF4001046
:102B30001FE02448C06C006823493031884202D12C
:102B40004FF4001015E01F48C06C00681F49303179
:102B5000884202D14FF400100BE01A48C06C0068A4
:102B600019499031884202D14FF4001001E04FF032
:102B700000601649703988601548007800F002003E
:102B800078B11348007820F0020011490870084617
:102B9000007840F004000870012211460D4800F052
:102BA000A1FF0D48007800F00200E0B10A4800786B
:102BB00020F00200084908700846007840F0040040
:102BC00008700BE04804002010640240706002406E
:102BD000BD00002000040240BE00002001221021A0
:102BE000184800F07FFF1848007800F0020078B124
:102BF0001548007820F00200134908700846007854
:102C000040F004000870012210210E4800F06AFF15
:102C100008F0E6FB0D48007800F0040080B10B4896
:102C2000007820F00400094908700846007840F058
:102C3000080008700648006840F001000449086078
:102C400010BD000000000240BF000020BD000020B9
:102C5000103C014010B5024800F0F2FB10BD00002E
:102C6000A007002010B5024800F0EAFB10BD0000EC
:102C7000800600200146087810381823B0FBF3F2D4
:102C80000848805CC865032A05D908686FF3090005
:102C9000001D886503E008686FF309008865886D8A
:102CA000704700005CD00008014600208A6A8B69EA
:102CB000CBB932B1012A0DD0022A03D0032A10D198
:102CC0000EE000BFCB6A03F08073B3F1807F00D1C8
:102CD000012007E0CB6AB3F1C07F00D1012001E001
:102CE00000E000BF34E08B69B3F5005F1AD132B168
:102CF000012A07D0022A03D0032A11D10AE000BF1B
:102D000001200EE0CB6A03F08073B3F1807F00D125
:102D1000012006E0CB6AB3F1C07F00D1012000E0C2
:102D200000BF15E032B1012A05D0022A04D0032ADF
:102D30000CD103E000BF00BF012008E0CB6A03F024
:102D40008073B3F1807F00D1012000E000BF00BF9D
:102D5000704730B50468246824F4802405682C602A
:102D6000046863608468402C04D10468A26004682D
:102D7000E16003E00468A1600468E26030BD00BF68
:102D800000F004F8012008F0ABFDF9E702E00A20AA
:102D900008F0A6FDFBE700001249096841F08071C8
:102DA000104A11600021104A51601146096841F033
:102DB000010111600D4941430D4A11601146096836
:102DC0004FF47A72B1FBF2F10A4A116008490968BE
:102DD000064AB1FBF2F1084A11600021074A11606E
:102DE00070470000FCED00E0001000E040420F00E2
:102DF000D0000020D4000020D8000020DC000020FB
:102E0000704710B5012000F065FD10BD10B5082019
:102E100000F060FD10BD10B5102000F05BFD10BD8E
:102E200010B5202000F056FD10BD72B600BFFEE7C1
:102E300070472DE9F05F0446002520684669206848
:102E4000D0F80490206887682068D0F80CA020682B
:102E5000D0F810B02068D0F8188006F001000028E3
:102E600055D007F00100C0B101202168886007F04B
:102E7000020018B1204600F073FA0EE007F00400DB
:102E800010B145F4006508E007F0080010B145F402
:102E9000805502E0204600F062FA07F48070C8B165
:102EA0004FF480702168886007F4007018B12046E4
:102EB00000F058FA0EE007F4806010B145F40055B8
:102EC00008E007F4006010B145F4804502E02046B8
:102ED00000F047FA07F48030C8B14FF48030216821
:102EE000886007F4003018B1204600F03DFA0EE08B
:102EF00007F4802010B145F4004508E007F40020F5
:102F000010B145F4803502E0204600F02CFA06F0BE
:102F1000080038B10AF0100020B145F40075102007
:102F20002168C86006F0040040B10AF0080028B12A
:102F300008202168C860204600F00CFA06F0020064
:102F400038B12068C06800F0030010B1204600F0DE
:102F500002FA06F0400038B10BF0100020B145F441
:102F6000806510202168086106F0200040B10BF058
:102F7000080028B1082021680861204600F0ECF91B
:102F800006F0100038B12068006900F0030010B1AD
:102F9000204600F0E2F906F4003040B109F01000DC
:102FA00028B1102021684860204600F0D7F906F4C7
:102FB000803040B109F0080028B10820216848603D
:102FC000204600F0D2F906F4004088B309F004006E
:102FD00078B306F4807020B108F0010008B145F024
:102FE000010506F4007020B108F0020008B145F0B8
:102FF000020506F4806020B108F0040008B145F035
:10300000040506F40060A0B108F0700088B108F073
:103010007000402817D006DC10280BD020280CD0D8
:10302000302819D10CE0502810D0602814D110E0BD
:103030001DE019E045F008050FE045F010050CE033
:1030400045F0200509E045F0400506E045F0800523
:1030500003E045F4807500E000BF00BF2068806990
:1030600020F07000216888610420216848602DB13B
:10307000606A284360622046FFF7DAFEBDE8F09FF1
:1030800070B504460CB9012070BD94F8200010B949
:10309000204600F0AFF82068006840F00100216889
:1030A000086000F025FD05460DE000F021FD401B05
:1030B0000A2808D9606A40F400306062052084F86C
:1030C00020000120E0E72068406800F001000028AF
:1030D000EBD02068006820F002002168086000F052
:1030E00007FD05460DE000F003FD401B0A2808D946
:1030F000606A40F400306062052084F820000120FE
:10310000C2E72068406800F002000028EBD1207E72
:10311000012806D12068006840F08000216808601E
:1031200005E02068006820F0800021680860607E6B
:10313000012806D12068006840F04000216808603E
:1031400005E02068006820F0400021680860A07E4B
:10315000012806D12068006840F02000216808603E
:1031600005E02068006820F0200021680860E07E0B
:10317000012806D12068006820F01000216808604E
:1031800005E02068006840F0100021680860207F9A
:10319000012806D12068006840F008002168086016
:1031A00005E02068006820F0080021680860607F62
:1031B000012806D12068006840F0040021680860FA
:1031C00005E02068006820F0040021680860D4E968
:1031D0000201084321690843616908436168491E87
:1031E00008432168C86100206062012084F8200043
:1031F000002049E710B586B00446142101A8FDF768
:1032000016FA4E492068884241D14D480068401C5A
:103210004B4908600846006801280FD100BF002014
:1032200000904848006840F0007046490860084631
:10323000006800F00070009000BF00BF00BF0020D9
:10324000009040481038006840F008003D491039AF
:1032500008600846006800F00800009000BF00BF4A
:10326000032001900220029000200390032004908C
:103270000920059001A9344800F03AFB00220621FC
:10328000142001F07FF8142001F068F854E02F4971
:103290002068884250D100BF002000902948006873
:1032A00040F08060274908600846006800F08060B0
:1032B000009000BF00BF22480068401C2049086001
:1032C0000846006801280FD100BF002000901D486B
:1032D000006840F000701B4908600846006800F074
:1032E0000070009000BF00BF00BF00200090154894
:1032F0001038006840F00200124910390860084692
:10330000006800F00200009000BF00BF6020019044
:1033100002200290002003900320049009200590D1
:1033200001A90B4800F0E4FA00220621402001F038
:1033300029F8402001F012F806B010BD00640040EA
:103340001800002040380240000C02400068004095
:1033500000040240704770477047704770477047DD
:1033600070477047704770477047704770B50446A4
:10337000A56D00F0BDFB064694F83500022808D084
:103380008020606500BF002084F8340000BF012069
:1033900070BD2068006820F0160021680860206871
:1033A000406920F0800021684861206C08B9A06C59
:1033B00028B12068006820F00800216808602068B3
:1033C000006820F001002168086010E000F090FB28
:1033D000801B05280BD920206065032084F8350068
:1033E00000BF002084F8340000BF0320D0E720682D
:1033F000006800F001000028E8D194F85C103F203C
:103400008840A860012084F8350000BF002084F8BF
:10341000340000BF00BFBBE7014691F83500022829
:1034200003D08020486501207047052081F83500D1
:103430000868006820F001000A6810600020F3E7C7
:10344000F8B50446002000908C4800684FF41651EF
:10345000B0FBF1F7A56D2E6894F85C100820884049
:10346000304098B12068006800F0040070B1206816
:10347000006820F004002168086094F85C100820BF
:103480008840A860606D40F00100606594F85C10B1
:1034900001208840304068B12068406900F0800019
:1034A00040B194F85C1001208840A860606D40F045
:1034B0000200606594F85C1004208840304068B1D8
:1034C0002068006800F0020040B194F85C1004200D
:1034D0008840A860606D40F00400606594F85C105E
:1034E00010208840304078B32068006800F0080061
:1034F00050B394F85C1010208840A86020680068E1
:1035000000F4802080B12068006800F4002028B911
:10351000206CC8B12046216C884715E0A06C98B19A
:103520002046A16C88470FE02068006800F4807096
:1035300028B92068006820F0080021680860206C25
:1035400010B12046216C884794F85C1020208840F8
:103550003040002865D02068006800F01000002886
:103560005FD094F85C1020208840A86094F8350063
:10357000052828D12068006820F01600216808601E
:103580002068406920F0800021684861206C08B9FB
:10359000A06C28B12068006820F00800216808604D
:1035A00094F85C103F208840A860012084F8350022
:1035B00000BF002084F8340000BF206D10B1204609
:1035C000216D8847F8BD2068006800F4802080B134
:1035D0002068006800F4002028B9606C10B1204613
:1035E000616C88471DE0E06BD8B12046E16B8847ED
:1035F00017E02068006800F4807068B920680068EF
:1036000020F0100021680860012084F8350000BF18
:10361000002084F8340000BFE06B10B12046E16B5D
:103620008847606D38B3606D00F00100F0B105208F
:1036300084F835002068006820F0010021680860E7
:1036400000BF0098401C0090B84200D905E02068F7
:10365000006800F001000028F3D100BF012084F8C9
:10366000350000BF002084F8340000BFE06C10B1CA
:103670002046E16C884700BFA4E700002C00002032
:103680002DE9F0410446002500F032FA074614B94E
:103690000120BDE8F081606A00B100BF022084F81B
:1036A000350000BF002084F8340000BF20680068A7
:1036B00020F00100216808600AE000F019FAC01B40
:1036C000052805D920206065032084F83500E0E74F
:1036D0002068006800F001000028EED1206805682D
:1036E00021480540D4E901010843E1680843216904
:1036F000084361690843A1690843E1690843216AF5
:1037000008430543606A042803D1D4E90B01084348
:103710000543206805602068456925F00705606A53
:103720000543606A04280DD1A06A0543E06A48B1E8
:103730002046FFF7B9FA28B140206065012084F8DF
:103740003500A6E7206845612046FFF793FA064654
:1037500094F85C103F208840B06000206065012034
:1037600084F83500002094E73F8010F02DE9F04701
:1037700004460D4616461F464FF00008D4F85890F0
:1037800000BF94F83400012802D10220BDE8F08780
:10379000012084F8340000BF94F83500012825D1B9
:1037A000022084F83500002060653B4632462946F9
:1037B0002046FFF7CEFA94F85C103F208840C9F805
:1037C00008002068006840F0160021680860206C3E
:1037D00028B12068006840F008002168086020686F
:1037E000006840F001002168086006E000BF00208A
:1037F00084F8340000BF4FF002084046C6E70000DE
:1038000010B50446102C12D12948007840F0010070
:10381000274908702748007840F0010025490870C2
:1038200025480078002841D007F0DAFD3EE0202C42
:103830000BD12248007840F00100204908701E4852
:10384000007898B307F0CCFD30E0082C19D11C4863
:10385000007840F001001A4908700846007800F02E
:103860000100087010B30846007820F001000870CD
:103870000846007840F002000870124807F09CFFEC
:1038800014E0012C12D109F061F801280ED00E4984
:103890000E48006808F0A6FD0B48006830B120070C
:1038A0000B490860BFF34F8FBFF36F8F10BD00004F
:1038B000BE000020BF000020C1000020BD0000208D
:1038C000C000002034460020C400002098000020E2
:1038D00004ED00E010B5044604480068204020B123
:1038E000024804602046FFF78BFF10BD143C0140E6
:1038F000F8B502460B460025002400200021D6E042
:10390000012606FA01F51E6806EA0504AC4274D1E8
:103910001E7906F00306012E04D01E7906F0030678
:10392000022E13D190684F000326BE40B0434F00D3
:10393000DE68BE4030439060506801268E40B04340
:103940001E79C6F300168E40304350601E7906F093
:103950000306032E09D0D0684F000326BE40B043B3
:103960004F009E68BE403043D0601E7906F00306CB
:10397000022E13D1CF0802F1200656F827004E0779
:10398000F70E0F26BE40B0434F07FF0E1E69BE4024
:103990003043CF0802F1200646F8270010684F0098
:1039A0000326BE40B0431E7906F003064F00BE401A
:1039B000304310605E6806F44036002E76D000BFBB
:1039C000002600963C4E366846F480463A4F3E60EC
:1039D0003E46366806F48046009600BF00BF374E6C
:1039E0008F0856F827008E07370F0F26BE40B043CA
:1039F000334EB24202D1002624E057E0314EB242AB
:103A000001D101261EE0304EB24201D1022619E05A
:103A10002E4EB24201D1032614E02D4EB24201D106
:103A200004260FE02B4EB24201D105260AE02A4EB1
:103A3000B24201D1062605E0284EB24201D1072646
:103A400000E008268F073F0FBE4030431B4E8F0813
:103A500046F82700224E3068A0435E6806F48016C0
:103A600006B120431E4E3060361D3068A0435E68AC
:103A700006F4001606B12043194E361D3060184E6C
:103A8000361F3068A0435E6806F4003606B1204356
:103A9000134E361F3060361F3068A0435E6806F450
:103AA000803606B120430E4E083E3060491C102976
:103AB000FFF426AFF8BD000044380240083801404A
:103AC000000002400004024000080240000C0240D6
:103AD000001002400014024000180240001C024086
:103AE000083C01400AB1816101E00B048361704729
:103AF00001480068704700002000002070B50446AF
:103B00000CB9012070BD94F83D0028B9002084F85C
:103B10003C00204600F010FB242084F83D00206883
:103B2000006820F00100216808602068006840F407
:103B30000040216808602068006820F40040216887
:103B4000086000F05BFD05465C496068884206D865
:103B50005B48854201D2012007E0002005E059487A
:103B6000854201D2012000E00020012800D1C9E7F0
:103B70005548B5FBF0F62068406820F03F00304320
:103B8000216848604D496068884201D8701C07E090
:103B90004FF4967070434FF47A71B0FBF1F0401C13
:103BA0002168096A21F03F010843216808624349FE
:103BB0006068884214D8681E61684900B0FBF1F063
:103BC000401CC0F30B00042801D204203DE0681E15
:103BD00061684900B0FBF1F0401CC0F30B0034E019
:103BE000A06838B9681E616801EB4101B0FBF1F0D3
:103BF000401C0AE0681E616801EBC10202EB011182
:103C0000B0FBF1F0401C40F48040C0F30B0008B959
:103C100001201AE0A06848B9681E616801EB410103
:103C2000B0FBF1F0401CC0F30B000CE0681E6168B3
:103C300001EBC10202EB0111B0FBF1F0401CC0F33B
:103C40000B0040F4804040F400402168C9694CF604
:103C5000FF72914308432168C861D4E90701084312
:103C60002168096821F0C001084321680860D4E98F
:103C7000031008432168896848F2FF3291430843E2
:103C800021688860D4E9050108432168C96821F0EA
:103C9000FF0108432168C8602068006840F0010007
:103CA0002168086000202064202084F83D00002066
:103CB000206384F83E0000BF24E70000A0860100D6
:103CC00080841E0000093D0040420F002DE9FC5F8A
:103CD00004460F4690469946DDE90CAB0E9EFFF771
:103CE00007FF054694F83D00202870D119230122D2
:103CF000B5492046009502F0DEF810B10220BDE87B
:103D0000FC9F00BF94F83C00012801D10220F6E797
:103D1000012084F83C0000BF2068006800F001002A
:103D200028B92068006840F0010021680860206818
:103D3000006820F4006021680860222084F83D00BB
:103D4000402084F83E0000202064C4F824A0A4F899
:103D50002AB0608D20859D48E0624B464246394638
:103D60002046CDE9006501F053FF08B10120C6E708
:103D7000208D88B900BF0020019020684069019023
:103D800020688069019000BF00BF2068006840F48F
:103D900000702168086040E0208D012818D120685B
:103DA000006820F480602168086000BF0020019056
:103DB00020684069019020688069019000BF00BFC1
:103DC0002068006840F400702168086025E0F8E091
:103DD000208D022816D12068006820F480602168B8
:103DE00008602068006840F400602168086000BF37
:103DF000002001902068406901902068806901904E
:103E000000BF0AE000BF00200190206840690190D7
:103E100020688069019000BF00BFC3E0208D0328A7
:103E20007ED8208D012815D12A463146204602F041
:103E30001EF908B1012062E720680069616A087014
:103E4000606A401C6062208D401E2085608D401E8F
:103E50006085A7E0208D02282AD1334600225C49E4
:103E60002046009502F027F808B1012047E72068B6
:103E7000006840F400702168086020680069616A89
:103E80000870606A401C6062208D401E2085608D35
:103E9000401E608520680069616A0870606A401C85
:103EA0006062208D401E2085608D401E608579E017
:103EB0003346002246492046009501F0FCFF08B138
:103EC00001201CE72068006820F4806021680860F9
:103ED00020680069616A0870606A401C6062208D19
:103EE000401E2085608D401E608533460022384983
:103EF0002046009501F0DFFF08B10120FFE62068B1
:103F0000006840F400702168086020680069616AF8
:103F10000870606A401C6062208D401E208500E0B1
:103F200010E0608D401E608520680069616A08703D
:103F3000606A401C6062208D401E2085608D401E9E
:103F400060852FE02A463146204602F090F808B1FD
:103F50000120D4E620680069616A0870606A401C2C
:103F60006062208D401E2085608D401E6085206827
:103F70004069C0F38000A8B1208D032805D12068D6
:103F8000006820F480602168086020680069616A28
:103F90000870606A401C6062208D401E2085608D24
:103FA000401E6085208D00287FF438AF202084F8E3
:103FB0003D00002084F83E0000BF84F83C0000BFB4
:103FC0009DE602209BE60000020010000000FFFFBB
:103FD000040001002DE9FC5F04460F469046994617
:103FE000DDE90CAB0E9EFFF783FD054694F83D001E
:103FF00020287DD1192301224D492046009501F04A
:104000005AFF10B10220BDE8FC9F00BF94F83C00AD
:10401000012801D10220F6E7012084F83C0000BF0E
:104020002068006800F0010028B92068006840F0AE
:104030000100216808602068006820F400602168A1
:104040000860212084F83D00402084F83E000020D4
:104050002064C4F824A0A4F82AB0608D20853548D7
:10406000E0624B46424639462046CDE9006501F004
:104070007FFE08B10120C6E731E02A4631462046DE
:1040800002F03AF850B1206C042805D1206800688D
:1040900040F40070216808600120B4E7606A00788D
:1040A00021680861606A401C6062208D401E208586
:1040B000608D401E608520684069C0F3800070B14B
:1040C000208D60B1606A007821680861606A401CD8
:1040D0006062208D401E2085608D401E6085208D91
:1040E0000028CAD12A463146204601F0B1FE00E040
:1040F0001CE050B1206C042805D12068006840F411
:1041000000702168086001207DE72068006840F4A5
:10411000007021680860202084F83D00002084F8A9
:104120003E0000BF84F83C0000BF6CE702206AE755
:10413000020010000000FFFF10B586B004461421F5
:1041400001A8FCF774FA2A49206888424DD100BFC3
:10415000002000902748006840F0040025490860CE
:104160000846006800F00400009000BF00BF00BFD8
:10417000002000900846006840F0010008600846F2
:10418000006800F00100009000BF00BF48150190DA
:104190001220029001200390032004900420059037
:1041A00001A91548FFF7A4FB4FF48070019012207D
:1041B000029001200390032004900420059001A99F
:1041C0000E48FFF795FB00BF002000900948103013
:1041D000006840F400000749103108600846006894
:1041E00000F40000009000BF00BF06B010BD00004A
:1041F000005C0040303802400008024000000240ED
:104200000348006803490978084401490860704779
:10421000200000202800002010B50D48006840F460
:1042200000700B4908600846006840F48060086030
:104230000846006840F480700860032000F0E0F851
:104240000F2000F007F800F05FF8002010BD00001C
:10425000003C02402DE9F04188B004460027B846F2
:1042600000BF002001902448006840F0010022496E
:1042700008600846006800F00100019000BF00BF20
:1042800002A903A800F092F9069F1FB900F0B6F941
:10429000054602E000F0B2F945001848B5FBF0F021
:1042A000A0F101084FF080401549086040F2E73165
:1042B0001348C160C0F80480002101618160816100
:1042C00000F098FE064696B90D4800F0E1FE06465D
:1042D0006EB91C2000F042F8102C07D200222146B3
:1042E0001C2000F04FF80748046000E0012630462B
:1042F00008B0BDE8F08100004038024040420F00A5
:10430000C80800202400002008B500BF002000904D
:104310001148006840F480400F4908600846006872
:1043200000F48040009000BF00BF00BF002000905C
:10433000081F006840F08050091F086008460068A8
:1043400000F08050009000BF00BF00220F21901E9F
:1043500000F018F808BD0000443802400146084645
:1043600000280DDB00BF00BF00F01F0301229A40B0
:1043700043099B0003F1E023C3F8002100BF00BF05
:1043800000BF70472DE9F05F80460D4616460027B6
:1043900006F010FA074639462A46334601F0070070
:1043A000C0F1070ABAF1040F02D94FF0040A01E084
:1043B000C0F1070AD14600F1040ABAF1070F02D290
:1043C0004FF0000A01E0A0F1030AD4464FF0010AC1
:1043D0000AFA09FAAAF1010A0AEA020A0AFA0CFA26
:1043E0004FF0010B0BFA0CFBABF1010B0BEA030BCB
:1043F0004AEA0B042146404606F0E4F9BDE8F09F86
:1044000000BF00F00702064B19684FF6FF03194082
:10441000044B0B4343EA0221014B196000BF704774
:104420000CED00E00000FA0570B504460D460CB92D
:10443000012070BD5848006800F00700A84209D26A
:1044400055490D700846006800F00700A84201D0E9
:104450000120EEE7207800F0020002281DD120782C
:1044600000F00400042805D14C48006840F4E050F6
:104470004A490860207800F00800082805D147481C
:10448000006840F46040454908604448006820F0F6
:10449000F000A168084341490860207800F001005D
:1044A000A8B36068012807D13C4808380068C0F309
:1044B0004040B8B90120BCE76068022802D06068BB
:1044C000032807D1354808380068C0F3406048B970
:1044D0000120AEE7314808380068C0F3400008B951
:1044E0000120A6E72D48006820F00300616808431A
:1044F0002A490860FFF7FCFA064609E0FFF7F8FAD8
:10450000801B41F28831884202D9032091E707E0FD
:104510002248006800F00C006168B0EB810FEDD11B
:104520001D48006800F00700A84209D91A490D701B
:104530000846006800F00700A84201D0012078E793
:10454000207800F00400042807D11448006820F403
:10455000E050E168084311490860207800F0080045
:10456000082808D10D48006820F46040216940EA1D
:10457000C1000A49086000F061F808490968C1F300
:104580000311074A515CC8400649086006480068A4
:10459000FFF760FE00204CE7003C02400838024074
:1045A00064D000082C000020240000200F220260AC
:1045B0000D4A126802F0030242600B4A126802F0D0
:1045C000F0028260084A126802F4E052C260064AB1
:1045D000126802F46042D2080261044A126802F0D2
:1045E00007020A607047000008380240003C0240A1
:1045F00001480068704700002C00002000B5FFF75C
:10460000F7FF04490968C1F38221034A515CC8409D
:1046100000BD00000838024074D0000800B5FFF764
:10462000E7FF04490968C1F34231034A515CC840BD
:1046300000BD00000838024074D000082DE9F047A2
:10464000002400250026A1462548006800F00C0043
:1046500020B1042805D008283AD105E0DFF884907D
:1046600039E0DFF8849036E01D48001F006800F054
:104670003F041B48001F006800F4800078B11A480E
:104680001749091F0968C1F38811A0FB0170014691
:10469000224600233846FBF7BDFE05460EE01148D2
:1046A0000F49091F0968C1F38811A0FB0170014679
:1046B000224600233846FBF7ADFE05460848001F9A
:1046C0000068C0F30140401C4600B5FBF6F902E06B
:1046D000DFF8109000BF00BF4846BDE8F08700003B
:1046E000083802400024F400001BB700F8B5044667
:1046F0000CB90120F8BD207800F00100002874D02A
:10470000F948006800F00C0004280DD0F648006855
:1047100000F00C00082813D1F348001F006800F4D3
:104720008000B0F5800F0BD1EF4808380068C0F367
:104730004040002859D06068002856D10120D9E7B0
:1047400000BF6068B0F5803F08D1E74808380068CE
:1047500040F48030E449083908601EE06068B0F534
:10476000A02F0DD1E0480838006840F48020DE49D1
:10477000083908600846006840F4803008600CE0A2
:10478000D9480838006820F48030D74908390860D3
:104790000846006820F48020086000BF606890B17F
:1047A000FFF7A6F9054606E0FFF7A2F9401B6428CB
:1047B00001D903209EE7CC4808380068C0F3404088
:1047C0000028F1D011E0FFF793F9054606E0FFF766
:1047D0008FF9401B642801D903208BE7C2480838B1
:1047E0000068C0F340400028F1D1207800F00200BA
:1047F00002285FD1BC48006800F00C0058B1BA48EC
:10480000006800F00C0008281CD1B748001F0068A1
:1048100000F48000B0B9B44808380068C0F3400024
:1048200020B1E068012801D0012063E7AE480838D4
:10483000006820F0F800216940EAC100AA4908395F
:10484000086037E0E06800B30120A8490860FFF77E
:104850004FF9054606E0FFF74BF9401B022801D946
:10486000032047E7A04808380068C0F3400000284C
:10487000F1D09D480838006820F0F800216940EA2E
:10488000C10099490839086014E000209749086080
:10489000FFF72EF9054606E0FFF72AF9401B02282C
:1048A00001D9032026E7904808380068C0F340008B
:1048B0000028F1D1207800F0080008282CD1606988
:1048C000A8B101208A490860FFF712F9054606E001
:1048D000FFF70EF9401B022801D903200AE782489E
:1048E0006C300068C0F340000028F1D014E00020D4
:1048F0007F490860FFF7FCF8054606E0FFF7F8F887
:10490000401B022801D90320F4E677486C30006888
:10491000C0F340000028F1D1207800F00400042802
:1049200070D1002770483830006800F0805090B98E
:1049300000BF002000906C483830006840F0805084
:104940006949383108600846006800F080500090DE
:1049500000BF00BF01276748006800F48070B0B94D
:104960006448006840F4807062490860FFF7C0F84E
:10497000054606E0FFF7BCF8401B022801D90320DA
:10498000B8E65C48006800F480700028F2D000BFF0
:10499000A068012808D154486830006840F0010040
:1049A0005149683108601DE0A06805280DD14E48C6
:1049B0006830006840F004004B49683108600846E0
:1049C000006840F0010008600CE04748683000686B
:1049D00020F001004449683108600846006820F072
:1049E0000400086000BFA068A8B1FFF781F8054681
:1049F00009E0FFF77DF8401B41F28831884202D977
:104A0000032077E626E0384868300068C0F34000AD
:104A10000028EED013E0FFF76BF8054608E0FFF73B
:104A200067F8401B41F28831884201D9032061E6D2
:104A30002D4868300068C0F340000028EFD1012FF6
:104A400007D129483830006820F080502649383195
:104A5000086000BFA069002845D02348006800F026
:104A60000C0008285DD0A069022845D100201F490C
:104A70000866FFF73DF8054606E0FFF739F8401BEA
:104A8000022801D9032035E6174808380068C0F32A
:104A900040600028F1D1D4E907010843616A40EA87
:104AA00081110122A06AC2EB500041EA00412C2092
:104AB000005D41EA00600C49091F086001200B49B4
:104AC0000866FFF715F8054606E0FFF711F8401BEA
:104AD000022801D903200DE6034808380068C0F316
:104AE00040600028F1D049E0083802400000474209
:104AF000800E474200700040002021490866FEF702
:104B0000F7FF054606E0FEF7F3FF401B022801D938
:104B10000320EFE51B480068C0F340600028F2D195
:104B20002CE0A069012800D1E4E51648001D0668C4
:104B3000A069012820D006F48001E06981421BD1E0
:104B400006F03F01206A814216D147F6C07030401E
:104B5000616AB0EB811F0FD106F440310122A06AD7
:104B6000C2EB5000B1EB004F06D106F070612C2073
:104B7000005DB1EB006F01D00120BBE50020B9E57D
:104B8000000047420038024010B504460CB901202D
:104B900010BD606A38B96068B0F5827F00D105E069
:104BA0000021E16102E00021216161610021A16237
:104BB00094F8510028B9002084F85000204600F0F5
:104BC00047F8022084F851002068006820F0400077
:104BD00021680860A08800F48270218901F40441F2
:104BE0000843A18901F400610843217C01F002011E
:104BF0000843217D01F001010843218B01F400717C
:104C00000843217F01F0380108432021095D01F0AC
:104C100080010843218D01F4005108432168086098
:104C20000421A06901EA104094F8241001F0100159
:104C30000843216848602068C06920F4006021684A
:104C4000C86100206065012084F8510000209FE7C2
:104C500010B586B00446142101A8FBF7E8FC4B49C7
:104C6000206888427ED100BF00200090484800683C
:104C700040F48050464908600846006800F48050BF
:104C8000009000BF00BF00BF0020009040481438D3
:104C9000006840F002003E49143908600846006888
:104CA00000F00200009000BF00BF00BF0020009095
:104CB0000846006840F0010008600846006800F0FF
:104CC0000100009000BF00BF182001900220029058
:104CD00001200390032004900520059001A92D4890
:104CE000FEF706FE80200190022002900120039032
:104CF000032004900520059001A92748FEF7F8FD40
:104D00002648274908604FF0C060486000212448C9
:104D10008160C1604FF48061016100214161816166
:104D2000C1614FF44031016200214162FEF7A8FCED
:104D300008B1FEF77AF800BF1948E064846300BF49
:104D400016481830174908604FF0C060486040218D
:104D5000144881600021C1604FF48061016100212D
:104D6000416100E010E08161C1614FF400310162F6
:104D700000214162FEF784FC08B1FEF756F800BF3F
:104D80000848A064846300BF06B010BD0030014035
:104D900044380240000402400000024040640240E7
:104DA000A0040020000500202DE9FE4F04460F4618
:104DB00090461D460C9E01200190FEF799FE81460B
:104DC00094F851B060680290AA46BBF1010F0BD075
:104DD0000298B0F5827F04D1A06810B9BBF1040F2E
:104DE00002D00220BDE8FE8F1FB1B8F1000F00D045
:104DF0000DB90120F6E700BF94F85000012801D159
:104E00000220EFE7012084F8500000BF94F8510021
:104E1000042802D0052084F8510000206065C4F801
:104E20003880E587A5872763E586A58620646064CA
:104E30002068006800F04000402805D02068006825
:104E400040F0400021680860E068B0F5006F52D182
:104E5000606810B1BAF1010F09D1206B0088216898
:104E6000C860206B801C2063E08E401EE0863BE023
:104E70002068806800F00200022810D1E08E70B136
:104E8000019801280BD1206B00882168C860206B35
:104E9000801C2063E08E401EE08600200190206888
:104EA000806800F0010068B1E08F58B12068C068E8
:104EB000A16B0880A06B801CA063E08F401EE08780
:104EC00001200190FEF714FEA0EB0900B0420BD3C5
:104ED000701C48B1012084F8510000BF002084F804
:104EE000500000BF03207DE7E08E0028C0D1E08F96
:104EF0000028BDD152E0606810B1BAF1010F09D1AC
:104F0000206B007821680873206B401C2063E08EC2
:104F1000401EE0863CE02068806800F00200022825
:104F200010D1E08E70B1019801280BD1206B007870
:104F300021680873206B401C2063E08E401EE086D1
:104F4000002001902068806800F0010068B1E08FC7
:104F500058B12068C068A16B0870A06B401CA063AA
:104F6000E08F401EE08701200190FEF7C1FDA0EB1D
:104F70000900B04201D3701C00B94EB9012084F879
:104F8000510000BF002084F8500000BF032029E733
:104F9000E08E0028BFD1E08F0028BCD14A463146C0
:104FA000204604F0B3FE40B12020606500BF002021
:104FB00084F8500000BF012014E7A06850B900BF7A
:104FC000002000902068C0680090206880680090F1
:104FD00000BF00BF012084F8510000BF002084F80A
:104FE000500000BF606D08B10120FBE60020F9E62B
:104FF0007047704710B504460CB9012010BD94F8F5
:105000003D0028B9002084F83C00204600F026F836
:10501000022084F83D00211D206804F0B3FF012028
:1050200084F8460000BF84F83E0001213F2001556E
:10503000402001554120015500BF00BF012084F8E8
:10504000420043200155442001554520015500BF31
:10505000012084F83D000020D0E7000008B50A4A8E
:10506000016891420FD100BF0021009107490968F2
:1050700041F40031054A11601146096801F400311C
:10508000009100BF00BF08BD004401404438024009
:10509000014691F83D00012801D00120704702200F
:1050A00081F83D000868C06840F001000B68D860D6
:1050B0001A4B086898421BD00868B0F1804F17D08F
:1050C000174B0868984213D0164B086898420FD0C7
:1050D000154B086898420BD0144B0868984207D0CB
:1050E000134B0868984203D0124B086898420CD1C1
:1050F0000868806800F00702062A0CD0086800687B
:1051000040F001000B68186005E00868006840F096
:1051100001000B6818600020C0E70000000001409B
:105120000004004000080040000C00400004014062
:105130000040014000180040704770B504462068E8
:10514000C5682068066906F00200022819D105F03A
:105150000200022815D1401F216808610120207734
:105160002068806900F0030018B12046FFF7E4FFD3
:1051700005E0204600F0CAF8204600F07EF9002045
:10518000207706F00400042819D105F00400042853
:1051900015D1C0432168086102202077206880690A
:1051A00000F4407018B12046FFF7C6FF05E0204626
:1051B00000F0ACF8204600F060F90020207706F0FF
:1051C0000800082819D105F00800082815D1C043A7
:1051D00021680861042020772068C06900F003007E
:1051E00018B12046FFF7A8FF05E0204600F08EF832
:1051F000204600F042F90020207706F01000102829
:1052000019D105F01000102815D1C043216808619C
:10521000082020772068C06900F4407018B120464B
:10522000FFF78AFF05E0204600F070F8204600F006
:1052300024F90020207706F0010048B105F00100B4
:1052400030B16FF0010021680861204600F016F9C6
:1052500006F08000802809D105F08000802805D163
:10526000C043216808612046FFF7C2FE06F04000F7
:10527000402809D105F04000402805D1C0432168ED
:105280000861204600F003F906F02000202809D12B
:1052900005F02000202805D1C04321680861204680
:1052A000FFF7A7FE70BD000010B586B004461421BC
:1052B00001A8FBF7BCF91249206888421DD100BF44
:1052C000002000900F48006840F020000D49086061
:1052D0000846006800F02000009000BF00BF40209A
:1052E00001900220029001200390022004900320EC
:1052F000059001A90448FEF7FBFA06B010BD0000B6
:1053000000440140303802400014024070472DE94B
:10531000F04104460D461646002700BF94F83C00B5
:10532000012802D10220BDE8F081012084F83C0070
:1053300000BF36B1042E1BD0082E31D00C2E5ED10A
:1053400045E02946206804F091FE2068806940F01D
:105350000800216888612068806920F004002168C5
:10536000886120688069296908432168886148E06C
:105370002946206804F0B2FE2068806940F400608D
:10538000216888612068806920F4806021688861D4
:1053900020688069296940EA01202168886130E03D
:1053A0002946206804F0D8FE2068C06940F0080053
:1053B0002168C8612068C06920F004002168C861C4
:1053C0002068C069296908432168C86119E0294635
:1053D000206804F0FDFE2068C06940F40060216888
:1053E000C8612068C06920F480602168C8612068B5
:1053F000C069296940EA01202168C86101E00127EC
:1054000000BF00BF00BF002084F83C0000BF38464A
:1054100089E710B504460CB9012010BD94F83D0091
:1054200028B9002084F83C00204600F025F802202E
:1054300084F83D00211D206804F0A4FD012084F8BB
:10544000460000BF84F83E0001213F200155402066
:1054500001554120015500BF00BF012084F84200E2
:1054600043200155442001554520015500BF01202E
:1054700084F83D000020D0E77047704710B504461F
:105480002068B0F1804F01D1FEF7BAFE10BD704721
:10549000704770472DE9F84F04462068056820687A
:1054A000C668206847694FF00009CA4605F00F0931
:1054B000B9F1000F0AD105F0200038B106F0200044
:1054C00020B1204604F06CFFBDE8F88FB9F1000F61
:1054D0007CD007F0010018B906F49070002875D050
:1054E00005F0010030B106F4807018B1606C40F036
:1054F0000100606405F0040030B107F0010018B14C
:10550000606C40F00200606405F0020030B107F00A
:10551000010018B1606C40F00400606405F0080000
:1055200048B106F0200010B907F0010018B1606C16
:1055300040F008006064606C002846D005F0200050
:1055400028B106F0200010B1204604F029FF2068A1
:105550004069C0F3801A606C00F0080010B9BAF11D
:10556000000F2DD0204604F0C2FE2068406900F0F4
:105570004000402820D100BF00BF2168143151E80D
:10558000001F21F040002168143141E80002002A88
:10559000F3D100BFE06B50B17748E16B0865E06B79
:1055A000FDF73AFF88B1E06B016D88470DE02046BA
:1055B000FFF76FFF09E009E02046FFF76AFF04E00C
:1055C0002046FFF766FF002060647DE7206B01281E
:1055D00078D105F01000002874D006F010000028E3
:1055E000FAD000BF0020009020680068009020687A
:1055F0004068009000BF00BF2068406900F0400094
:10560000402860D1E06B006840681FFA80F8B8F16C
:10561000000F56D0A08D404553DDA4F82E80E06BDE
:10562000C069B0F5807F43D000BF00BF21680C3156
:1056300051E8001F21F4807021680C3141E800021C
:10564000002AF3D100BF00BF00BF2168143151E828
:10565000001F21F001002168143141E80002002AF6
:10566000F3D100BF00BF00BF2168143151E8001F13
:1056700021F040002168143141E80002002AF3D1F2
:1056800000BF202084F842000020206300BF00BF3C
:1056900021680C3151E8001F21F0100021680C3105
:1056A00041E80002002AF3D100BFE06BFDF75EFE87
:1056B00002206063A08DE28D801A81B22046FFF740
:1056C000E7FE01E742E0A08DE18D401A1FFA80F865
:1056D000E08DD0B3B8F1000F37D000BF00BF216814
:1056E0000C3151E8001F21F4907021680C3141E821
:1056F0000002002AF3D100BF00BF00BF21681431AF
:1057000051E8001F21F001002168143141E8000236
:10571000002AF3D100BF202084F84200002020633B
:1057200000BF00BF21680C3151E8001F21F01000BC
:1057300021680C3141E80002002AF3D100BF0220A9
:10574000606341462046FFF7A3FEBDE605F08000FA
:1057500030B106F0800018B1204604F0B5FFB3E682
:1057600005F0400030B106F0400018B1204604F0CA
:10577000F4FDA9E600BFA7E625A2000810B504467F
:105780000CB9012010BDA06900B100E000BF94F881
:10579000410028B9002084F84000204600F02AF893
:1057A000242084F841002068C06820F4005021685B
:1057B000C860204604F072FE2068006920F4904022
:1057C000216808612068406920F02A00216848614A
:1057D0002068C06840F400502168C8600020606400
:1057E000202084F8410084F842000020606300BF5C
:1057F000C8E7000010B586B00446142101A8FAF7E6
:1058000016FFAF492068884278D100BF0020009081
:10581000AC48006840F01000AA49086008460068DB
:1058200000F01000009000BF00BF00BF00200090FB
:10583000A4481438006840F00200A24914390860F6
:105840000846006800F00200009000BF00BF00BFE3
:10585000002000900846006840F0010008600846FB
:10586000006800F00100009000BF00BF80200190A0
:10587000022002900020039003200490072005904E
:1058800001A99148FEF734F84FF40070019002200E
:10589000029000200390032004900720059001A9A6
:1058A0008A48FEF725F88A488A4908604FF0006068
:1058B00048604021874881600021C1604FF48061C9
:1058C0000161002141618161C1614FF48031016258
:1058D00000214162FDF7D4FE08B1FDF7A6FA00BF32
:1058E0007C48A063846300BF002205212520FEF7C9
:1058F00049FD2520FEF732FDDFE0FFE7764920680D
:1059000088425BD100BF002000906E48001F0068F5
:1059100040F480206B49091F08600846006800F4C5
:105920008020009000BF00BF00BF002000906548AD
:105930001438006840F004006249143908600846D1
:10594000006800F00400009000BF00BF4FF440600A
:105950000190022002900020039003200490072071
:10596000059001A95D48FDF7C3FF5D485D490860EA
:105970004FF00060486000215A488160C1604FF4D8
:1059800080610161002141618161C1614FF4003199
:10599000016200214162FDF773FE08B1FDF745FA8F
:1059A00000BF5048E063846300BF00220521272028
:1059B000FEF7E8FC2720FEF7D1FC7EE04A4920688C
:1059C00088427AD100BF002000903E48006840F035
:1059D00020003C4908600846006800F02000009064
:1059E00000BF00BF00BF0020009036481438006898
:1059F00040F040003349143908600846006800F060
:105A00004000009000BF00BF4FF48440019002208E
:105A1000029000200390032004900820059001A923
:105A20003248FDF765FF2A48903831490860800503
:105A3000486000212E488160C1604FF4806101619F
:105A4000002141618161C1614FF400310162002197
:105A50004162FDF715FE08B1FDF7E7F900BF2448E4
:105A6000E063846300BF1A481838224908604FF089
:105A70002060486040211F4881600021C1604FF4D0
:105A800080610161002141618161C1614FF4803118
:105A9000016200214162FDF7F3FD08B1FDF7C5F990
:105AA00000BF1448A063846300BF00220521472083
:105AB000FEF768FC4720FEF751FC06B010BD000061
:105AC000001001404438024000040240000002403F
:105AD000B8640240800600200048004000080240F0
